{
  "contractName": "AdminContract",
  "abi": [
    {
      "inputs": [],
      "payable": false,
      "stateMutability": "nonpayable",
      "type": "constructor"
    },
    {
      "constant": true,
      "inputs": [
        {
          "internalType": "uint256",
          "name": "",
          "type": "uint256"
        }
      ],
      "name": "consumers",
      "outputs": [
        {
          "internalType": "address",
          "name": "addr",
          "type": "address"
        },
        {
          "internalType": "bool",
          "name": "ispresent",
          "type": "bool"
        },
        {
          "internalType": "string",
          "name": "name",
          "type": "string"
        }
      ],
      "payable": false,
      "stateMutability": "view",
      "type": "function"
    },
    {
      "constant": true,
      "inputs": [],
      "name": "owner",
      "outputs": [
        {
          "internalType": "address",
          "name": "",
          "type": "address"
        }
      ],
      "payable": false,
      "stateMutability": "view",
      "type": "function"
    },
    {
      "constant": true,
      "inputs": [
        {
          "internalType": "uint256",
          "name": "",
          "type": "uint256"
        }
      ],
      "name": "producers",
      "outputs": [
        {
          "internalType": "address",
          "name": "addr",
          "type": "address"
        },
        {
          "internalType": "bool",
          "name": "ispresent",
          "type": "bool"
        },
        {
          "internalType": "string",
          "name": "name",
          "type": "string"
        },
        {
          "internalType": "uint256",
          "name": "penalize",
          "type": "uint256"
        }
      ],
      "payable": false,
      "stateMutability": "view",
      "type": "function"
    },
    {
      "constant": true,
      "inputs": [
        {
          "internalType": "uint256",
          "name": "",
          "type": "uint256"
        }
      ],
      "name": "recycleUnits",
      "outputs": [
        {
          "internalType": "address",
          "name": "addr",
          "type": "address"
        },
        {
          "internalType": "bool",
          "name": "ispresent",
          "type": "bool"
        },
        {
          "internalType": "string",
          "name": "name",
          "type": "string"
        }
      ],
      "payable": false,
      "stateMutability": "view",
      "type": "function"
    },
    {
      "constant": true,
      "inputs": [
        {
          "internalType": "uint256",
          "name": "",
          "type": "uint256"
        }
      ],
      "name": "retailers",
      "outputs": [
        {
          "internalType": "address",
          "name": "addr",
          "type": "address"
        },
        {
          "internalType": "bool",
          "name": "ispresent",
          "type": "bool"
        },
        {
          "internalType": "string",
          "name": "name",
          "type": "string"
        }
      ],
      "payable": false,
      "stateMutability": "view",
      "type": "function"
    },
    {
      "constant": false,
      "inputs": [
        {
          "internalType": "address",
          "name": "_pAddress",
          "type": "address"
        },
        {
          "internalType": "string",
          "name": "_name",
          "type": "string"
        }
      ],
      "name": "addProducer",
      "outputs": [
        {
          "internalType": "bool",
          "name": "",
          "type": "bool"
        }
      ],
      "payable": false,
      "stateMutability": "nonpayable",
      "type": "function"
    },
    {
      "constant": false,
      "inputs": [
        {
          "internalType": "address",
          "name": "_rAddress",
          "type": "address"
        },
        {
          "internalType": "string",
          "name": "_name",
          "type": "string"
        }
      ],
      "name": "addRetailer",
      "outputs": [
        {
          "internalType": "bool",
          "name": "",
          "type": "bool"
        }
      ],
      "payable": false,
      "stateMutability": "nonpayable",
      "type": "function"
    },
    {
      "constant": false,
      "inputs": [
        {
          "internalType": "address",
          "name": "_cAddress",
          "type": "address"
        },
        {
          "internalType": "string",
          "name": "_name",
          "type": "string"
        }
      ],
      "name": "addConsumer",
      "outputs": [
        {
          "internalType": "bool",
          "name": "",
          "type": "bool"
        }
      ],
      "payable": false,
      "stateMutability": "nonpayable",
      "type": "function"
    },
    {
      "constant": false,
      "inputs": [
        {
          "internalType": "address",
          "name": "_rAddress",
          "type": "address"
        },
        {
          "internalType": "string",
          "name": "_name",
          "type": "string"
        }
      ],
      "name": "addRecycleUnit",
      "outputs": [
        {
          "internalType": "bool",
          "name": "",
          "type": "bool"
        }
      ],
      "payable": false,
      "stateMutability": "nonpayable",
      "type": "function"
    },
    {
      "constant": true,
      "inputs": [
        {
          "internalType": "address",
          "name": "_address",
          "type": "address"
        }
      ],
      "name": "checkProducer",
      "outputs": [
        {
          "internalType": "bool",
          "name": "",
          "type": "bool"
        }
      ],
      "payable": false,
      "stateMutability": "view",
      "type": "function"
    },
    {
      "constant": true,
      "inputs": [
        {
          "internalType": "address",
          "name": "_address",
          "type": "address"
        }
      ],
      "name": "checkRetailer",
      "outputs": [
        {
          "internalType": "bool",
          "name": "",
          "type": "bool"
        }
      ],
      "payable": false,
      "stateMutability": "view",
      "type": "function"
    },
    {
      "constant": true,
      "inputs": [
        {
          "internalType": "address",
          "name": "_address",
          "type": "address"
        }
      ],
      "name": "checkConsumer",
      "outputs": [
        {
          "internalType": "bool",
          "name": "",
          "type": "bool"
        }
      ],
      "payable": false,
      "stateMutability": "view",
      "type": "function"
    },
    {
      "constant": true,
      "inputs": [
        {
          "internalType": "address",
          "name": "_address",
          "type": "address"
        }
      ],
      "name": "checkRecycleUnit",
      "outputs": [
        {
          "internalType": "bool",
          "name": "",
          "type": "bool"
        }
      ],
      "payable": false,
      "stateMutability": "view",
      "type": "function"
    },
    {
      "constant": true,
      "inputs": [],
      "name": "getProducerCount",
      "outputs": [
        {
          "internalType": "uint256",
          "name": "",
          "type": "uint256"
        }
      ],
      "payable": false,
      "stateMutability": "view",
      "type": "function"
    },
    {
      "constant": true,
      "inputs": [],
      "name": "getRetailerCount",
      "outputs": [
        {
          "internalType": "uint256",
          "name": "",
          "type": "uint256"
        }
      ],
      "payable": false,
      "stateMutability": "view",
      "type": "function"
    },
    {
      "constant": true,
      "inputs": [],
      "name": "getConsumerCount",
      "outputs": [
        {
          "internalType": "uint256",
          "name": "",
          "type": "uint256"
        }
      ],
      "payable": false,
      "stateMutability": "view",
      "type": "function"
    },
    {
      "constant": true,
      "inputs": [],
      "name": "getRecyclingUintCount",
      "outputs": [
        {
          "internalType": "uint256",
          "name": "",
          "type": "uint256"
        }
      ],
      "payable": false,
      "stateMutability": "view",
      "type": "function"
    },
    {
      "constant": true,
      "inputs": [
        {
          "internalType": "address",
          "name": "_address",
          "type": "address"
        }
      ],
      "name": "getProducerName",
      "outputs": [
        {
          "internalType": "string",
          "name": "",
          "type": "string"
        },
        {
          "internalType": "uint256",
          "name": "",
          "type": "uint256"
        }
      ],
      "payable": false,
      "stateMutability": "view",
      "type": "function"
    },
    {
      "constant": true,
      "inputs": [
        {
          "internalType": "address",
          "name": "_address",
          "type": "address"
        }
      ],
      "name": "getRetailerName",
      "outputs": [
        {
          "internalType": "string",
          "name": "",
          "type": "string"
        }
      ],
      "payable": false,
      "stateMutability": "view",
      "type": "function"
    },
    {
      "constant": true,
      "inputs": [
        {
          "internalType": "address",
          "name": "_address",
          "type": "address"
        }
      ],
      "name": "getConsumerName",
      "outputs": [
        {
          "internalType": "string",
          "name": "",
          "type": "string"
        }
      ],
      "payable": false,
      "stateMutability": "view",
      "type": "function"
    },
    {
      "constant": true,
      "inputs": [
        {
          "internalType": "address",
          "name": "_address",
          "type": "address"
        }
      ],
      "name": "getRecycleUnitName",
      "outputs": [
        {
          "internalType": "string",
          "name": "",
          "type": "string"
        }
      ],
      "payable": false,
      "stateMutability": "view",
      "type": "function"
    },
    {
      "constant": false,
      "inputs": [
        {
          "internalType": "uint256",
          "name": "_amount",
          "type": "uint256"
        },
        {
          "internalType": "address",
          "name": "_producer",
          "type": "address"
        }
      ],
      "name": "addPenalizeAmount",
      "outputs": [],
      "payable": false,
      "stateMutability": "nonpayable",
      "type": "function"
    },
    {
      "constant": false,
      "inputs": [
        {
          "internalType": "address",
          "name": "_producer",
          "type": "address"
        }
      ],
      "name": "payPenalizeAmount",
      "outputs": [],
      "payable": true,
      "stateMutability": "payable",
      "type": "function"
    },
    {
      "constant": true,
      "inputs": [
        {
          "internalType": "address",
          "name": "_producer",
          "type": "address"
        }
      ],
      "name": "getPenalizeAmount",
      "outputs": [
        {
          "internalType": "uint256",
          "name": "",
          "type": "uint256"
        }
      ],
      "payable": false,
      "stateMutability": "view",
      "type": "function"
    }
  ],
  "bytecode": "0x608060405234801561001057600080fd5b50336000806101000a81548173ffffffffffffffffffffffffffffffffffffffff021916908373ffffffffffffffffffffffffffffffffffffffff160217905550612520806100606000396000f3fe60806040526004361061014b5760003560e01c806375c6da23116100b65780639b68ade71161006f5780639b68ade714610d5a578063b08a649814610e53578063b5baeaa114610e7e578063b87df62314610ec2578063bc94e4bf14610f2b578063fd03079514610f945761014b565b806375c6da231461092a57806387bbfc3b14610a2a578063897ec7df14610b1c5780638da5cb5b14610c0e57806393ef75ce14610c65578063994cac9014610d2f5761014b565b80634651ed3d116101085780634651ed3d146106545780634af2a8ec1461074657806354a674a714610771578063568fa58c146107cc5780636c7e75b81461089657806372c86a75146108ff5761014b565b806302ba2e691461015057806318e4d67e146101b957806319ba1e26146102b9578063227cca091461038a578063274f97c61461048a578063436701371461058a575b600080fd5b34801561015c57600080fd5b5061019f6004803603602081101561017357600080fd5b81019080803573ffffffffffffffffffffffffffffffffffffffff169060200190929190505050610ff9565b604051808215151515815260200191505060405180910390f35b3480156101c557600080fd5b5061029f600480360360408110156101dc57600080fd5b81019080803573ffffffffffffffffffffffffffffffffffffffff1690602001909291908035906020019064010000000081111561021957600080fd5b82018360208201111561022b57600080fd5b8035906020019184600183028401116401000000008311171561024d57600080fd5b91908080601f016020809104026020016040519081016040528093929190818152602001838380828437600081840152601f19601f8201169050808301925050505050505091929192905050506110e2565b604051808215151515815260200191505060405180910390f35b3480156102c557600080fd5b50610308600480360360208110156102dc57600080fd5b81019080803573ffffffffffffffffffffffffffffffffffffffff1690602001909291905050506111ed565b6040518080602001838152602001828103825284818151815260200191508051906020019080838360005b8381101561034e578082015181840152602081019050610333565b50505050905090810190601f16801561037b5780820380516001836020036101000a031916815260200191505b50935050505060405180910390f35b34801561039657600080fd5b50610470600480360360408110156103ad57600080fd5b81019080803573ffffffffffffffffffffffffffffffffffffffff169060200190929190803590602001906401000000008111156103ea57600080fd5b8201836020820111156103fc57600080fd5b8035906020019184600183028401116401000000008311171561041e57600080fd5b91908080601f016020809104026020016040519081016040528093929190818152602001838380828437600081840152601f19601f82011690508083019250505050505050919291929050505061136d565b604051808215151515815260200191505060405180910390f35b34801561049657600080fd5b50610570600480360360408110156104ad57600080fd5b81019080803573ffffffffffffffffffffffffffffffffffffffff169060200190929190803590602001906401000000008111156104ea57600080fd5b8201836020820111156104fc57600080fd5b8035906020019184600183028401116401000000008311171561051e57600080fd5b91908080601f016020809104026020016040519081016040528093929190818152602001838380828437600081840152601f19601f820116905080830192505050505050509192919290505050611478565b604051808215151515815260200191505060405180910390f35b34801561059657600080fd5b506105d9600480360360208110156105ad57600080fd5b81019080803573ffffffffffffffffffffffffffffffffffffffff16906020019092919050505061157d565b6040518080602001828103825283818151815260200191508051906020019080838360005b838110156106195780820151818401526020810190506105fe565b50505050905090810190601f1680156106465780820380516001836020036101000a031916815260200191505b509250505060405180910390f35b34801561066057600080fd5b5061068d6004803603602081101561067757600080fd5b81019080803590602001909291905050506116d7565b604051808473ffffffffffffffffffffffffffffffffffffffff1673ffffffffffffffffffffffffffffffffffffffff1681526020018315151515815260200180602001828103825283818151815260200191508051906020019080838360005b838110156107095780820151818401526020810190506106ee565b50505050905090810190601f1680156107365780820380516001836020036101000a031916815260200191505b5094505050505060405180910390f35b34801561075257600080fd5b5061075b6117d3565b6040518082815260200191505060405180910390f35b34801561077d57600080fd5b506107ca6004803603604081101561079457600080fd5b8101908080359060200190929190803573ffffffffffffffffffffffffffffffffffffffff1690602001909291905050506117e0565b005b3480156107d857600080fd5b5061081b600480360360208110156107ef57600080fd5b81019080803573ffffffffffffffffffffffffffffffffffffffff16906020019092919050505061189b565b6040518080602001828103825283818151815260200191508051906020019080838360005b8381101561085b578082015181840152602081019050610840565b50505050905090810190601f1680156108885780820380516001836020036101000a031916815260200191505b509250505060405180910390f35b3480156108a257600080fd5b506108e5600480360360208110156108b957600080fd5b81019080803573ffffffffffffffffffffffffffffffffffffffff1690602001909291905050506119f5565b604051808215151515815260200191505060405180910390f35b34801561090b57600080fd5b50610914611ade565b6040518082815260200191505060405180910390f35b34801561093657600080fd5b50610a106004803603604081101561094d57600080fd5b81019080803573ffffffffffffffffffffffffffffffffffffffff1690602001909291908035906020019064010000000081111561098a57600080fd5b82018360208201111561099c57600080fd5b803590602001918460018302840111640100000000831117156109be57600080fd5b91908080601f016020809104026020016040519081016040528093929190818152602001838380828437600081840152601f19601f820116905080830192505050505050509192919290505050611aeb565b604051808215151515815260200191505060405180910390f35b348015610a3657600080fd5b50610a6360048036036020811015610a4d57600080fd5b8101908080359060200190929190505050611bf6565b604051808473ffffffffffffffffffffffffffffffffffffffff1673ffffffffffffffffffffffffffffffffffffffff1681526020018315151515815260200180602001828103825283818151815260200191508051906020019080838360005b83811015610adf578082015181840152602081019050610ac4565b50505050905090810190601f168015610b0c5780820380516001836020036101000a031916815260200191505b5094505050505060405180910390f35b348015610b2857600080fd5b50610b5560048036036020811015610b3f57600080fd5b8101908080359060200190929190505050611cf2565b604051808473ffffffffffffffffffffffffffffffffffffffff1673ffffffffffffffffffffffffffffffffffffffff1681526020018315151515815260200180602001828103825283818151815260200191508051906020019080838360005b83811015610bd1578082015181840152602081019050610bb6565b50505050905090810190601f168015610bfe5780820380516001836020036101000a031916815260200191505b5094505050505060405180910390f35b348015610c1a57600080fd5b50610c23611dee565b604051808273ffffffffffffffffffffffffffffffffffffffff1673ffffffffffffffffffffffffffffffffffffffff16815260200191505060405180910390f35b348015610c7157600080fd5b50610cb460048036036020811015610c8857600080fd5b81019080803573ffffffffffffffffffffffffffffffffffffffff169060200190929190505050611e13565b6040518080602001828103825283818151815260200191508051906020019080838360005b83811015610cf4578082015181840152602081019050610cd9565b50505050905090810190601f168015610d215780820380516001836020036101000a031916815260200191505b509250505060405180910390f35b348015610d3b57600080fd5b50610d44611f6d565b6040518082815260200191505060405180910390f35b348015610d6657600080fd5b50610d9360048036036020811015610d7d57600080fd5b8101908080359060200190929190505050611f7a565b604051808573ffffffffffffffffffffffffffffffffffffffff1673ffffffffffffffffffffffffffffffffffffffff1681526020018415151515815260200180602001838152602001828103825284818151815260200191508051906020019080838360005b83811015610e15578082015181840152602081019050610dfa565b50505050905090810190601f168015610e425780820380516001836020036101000a031916815260200191505b509550505050505060405180910390f35b348015610e5f57600080fd5b50610e6861207c565b6040518082815260200191505060405180910390f35b610ec060048036036020811015610e9457600080fd5b81019080803573ffffffffffffffffffffffffffffffffffffffff169060200190929190505050612089565b005b348015610ece57600080fd5b50610f1160048036036020811015610ee557600080fd5b81019080803573ffffffffffffffffffffffffffffffffffffffff1690602001909291905050506121b2565b604051808215151515815260200191505060405180910390f35b348015610f3757600080fd5b50610f7a60048036036020811015610f4e57600080fd5b81019080803573ffffffffffffffffffffffffffffffffffffffff16906020019092919050505061229b565b604051808215151515815260200191505060405180910390f35b348015610fa057600080fd5b50610fe360048036036020811015610fb757600080fd5b81019080803573ffffffffffffffffffffffffffffffffffffffff169060200190929190505050612384565b6040518082815260200191505060405180910390f35b600080600380549050141561101157600090506110dd565b60008090505b6003805490508110156110d7578273ffffffffffffffffffffffffffffffffffffffff166003828154811061104857fe5b906000526020600020906002020160000160009054906101000a900473ffffffffffffffffffffffffffffffffffffffff1673ffffffffffffffffffffffffffffffffffffffff1614156110ca57600381815481106110a357fe5b906000526020600020906002020160000160149054906101000a900460ff169150506110dd565b8080600101915050611017565b50600090505b919050565b60006110ed836119f5565b6111e257600460405180606001604052808573ffffffffffffffffffffffffffffffffffffffff168152602001600115158152602001848152509080600181540180825580915050906001820390600052602060002090600202016000909192909190915060008201518160000160006101000a81548173ffffffffffffffffffffffffffffffffffffffff021916908373ffffffffffffffffffffffffffffffffffffffff16021790555060208201518160000160146101000a81548160ff02191690831515021790555060408201518160010190805190602001906111d5929190612446565b50505050600190506111e7565b600090505b92915050565b6060600080600090505b600180549050811015611366578373ffffffffffffffffffffffffffffffffffffffff166001828154811061122857fe5b906000526020600020906003020160000160009054906101000a900473ffffffffffffffffffffffffffffffffffffffff1673ffffffffffffffffffffffffffffffffffffffff161415611359576001818154811061128357fe5b9060005260206000209060030201600101600182815481106112a157fe5b906000526020600020906003020160020154818054600181600116156101000203166002900480601f0160208091040260200160405190810160405280929190818152602001828054600181600116156101000203166002900480156113485780601f1061131d57610100808354040283529160200191611348565b820191906000526020600020905b81548152906001019060200180831161132b57829003601f168201915b505050505091509250925050611368565b80806001019150506111f7565b505b915091565b600061137883610ff9565b61146d57600360405180606001604052808573ffffffffffffffffffffffffffffffffffffffff168152602001600115158152602001848152509080600181540180825580915050906001820390600052602060002090600202016000909192909190915060008201518160000160006101000a81548173ffffffffffffffffffffffffffffffffffffffff021916908373ffffffffffffffffffffffffffffffffffffffff16021790555060208201518160000160146101000a81548160ff0219169083151502179055506040820151816001019080519060200190611460929190612446565b5050505060019050611472565b600090505b92915050565b6000600160405180608001604052808573ffffffffffffffffffffffffffffffffffffffff16815260200160011515815260200184815260200160008152509080600181540180825580915050906001820390600052602060002090600302016000909192909190915060008201518160000160006101000a81548173ffffffffffffffffffffffffffffffffffffffff021916908373ffffffffffffffffffffffffffffffffffffffff16021790555060208201518160000160146101000a81548160ff0219169083151502179055506040820151816001019080519060200190611565929190612446565b50606082015181600201555050506001905092915050565b606060008090505b6004805490508110156116d0578273ffffffffffffffffffffffffffffffffffffffff16600482815481106115b657fe5b906000526020600020906002020160000160009054906101000a900473ffffffffffffffffffffffffffffffffffffffff1673ffffffffffffffffffffffffffffffffffffffff1614156116c3576004818154811061161157fe5b90600052602060002090600202016001018054600181600116156101000203166002900480601f0160208091040260200160405190810160405280929190818152602001828054600181600116156101000203166002900480156116b65780601f1061168b576101008083540402835291602001916116b6565b820191906000526020600020905b81548152906001019060200180831161169957829003601f168201915b50505050509150506116d2565b8080600101915050611585565b505b919050565b600381815481106116e457fe5b90600052602060002090600202016000915090508060000160009054906101000a900473ffffffffffffffffffffffffffffffffffffffff16908060000160149054906101000a900460ff1690806001018054600181600116156101000203166002900480601f0160208091040260200160405190810160405280929190818152602001828054600181600116156101000203166002900480156117c95780601f1061179e576101008083540402835291602001916117c9565b820191906000526020600020905b8154815290600101906020018083116117ac57829003601f168201915b5050505050905083565b6000600380549050905090565b60008090505b600180549050811015611896578173ffffffffffffffffffffffffffffffffffffffff166001828154811061181757fe5b906000526020600020906003020160000160009054906101000a900473ffffffffffffffffffffffffffffffffffffffff1673ffffffffffffffffffffffffffffffffffffffff16141561188957826001828154811061187357fe5b9060005260206000209060030201600201819055505b80806001019150506117e6565b505050565b606060008090505b6002805490508110156119ee578273ffffffffffffffffffffffffffffffffffffffff16600282815481106118d457fe5b906000526020600020906002020160000160009054906101000a900473ffffffffffffffffffffffffffffffffffffffff1673ffffffffffffffffffffffffffffffffffffffff1614156119e1576002818154811061192f57fe5b90600052602060002090600202016001018054600181600116156101000203166002900480601f0160208091040260200160405190810160405280929190818152602001828054600181600116156101000203166002900480156119d45780601f106119a9576101008083540402835291602001916119d4565b820191906000526020600020905b8154815290600101906020018083116119b757829003601f168201915b50505050509150506119f0565b80806001019150506118a3565b505b919050565b6000806004805490501415611a0d5760009050611ad9565b60008090505b600480549050811015611ad3578273ffffffffffffffffffffffffffffffffffffffff1660048281548110611a4457fe5b906000526020600020906002020160000160009054906101000a900473ffffffffffffffffffffffffffffffffffffffff1673ffffffffffffffffffffffffffffffffffffffff161415611ac65760048181548110611a9f57fe5b906000526020600020906002020160000160149054906101000a900460ff16915050611ad9565b8080600101915050611a13565b50600090505b919050565b6000600480549050905090565b6000611af6836121b2565b611beb57600260405180606001604052808573ffffffffffffffffffffffffffffffffffffffff168152602001600115158152602001848152509080600181540180825580915050906001820390600052602060002090600202016000909192909190915060008201518160000160006101000a81548173ffffffffffffffffffffffffffffffffffffffff021916908373ffffffffffffffffffffffffffffffffffffffff16021790555060208201518160000160146101000a81548160ff0219169083151502179055506040820151816001019080519060200190611bde929190612446565b5050505060019050611bf0565b600090505b92915050565b60048181548110611c0357fe5b90600052602060002090600202016000915090508060000160009054906101000a900473ffffffffffffffffffffffffffffffffffffffff16908060000160149054906101000a900460ff1690806001018054600181600116156101000203166002900480601f016020809104026020016040519081016040528092919081815260200182805460018160011615610100020316600290048015611ce85780601f10611cbd57610100808354040283529160200191611ce8565b820191906000526020600020905b815481529060010190602001808311611ccb57829003601f168201915b5050505050905083565b60028181548110611cff57fe5b90600052602060002090600202016000915090508060000160009054906101000a900473ffffffffffffffffffffffffffffffffffffffff16908060000160149054906101000a900460ff1690806001018054600181600116156101000203166002900480601f016020809104026020016040519081016040528092919081815260200182805460018160011615610100020316600290048015611de45780601f10611db957610100808354040283529160200191611de4565b820191906000526020600020905b815481529060010190602001808311611dc757829003601f168201915b5050505050905083565b6000809054906101000a900473ffffffffffffffffffffffffffffffffffffffff1681565b606060008090505b600380549050811015611f66578273ffffffffffffffffffffffffffffffffffffffff1660038281548110611e4c57fe5b906000526020600020906002020160000160009054906101000a900473ffffffffffffffffffffffffffffffffffffffff1673ffffffffffffffffffffffffffffffffffffffff161415611f595760038181548110611ea757fe5b90600052602060002090600202016001018054600181600116156101000203166002900480601f016020809104026020016040519081016040528092919081815260200182805460018160011615610100020316600290048015611f4c5780601f10611f2157610100808354040283529160200191611f4c565b820191906000526020600020905b815481529060010190602001808311611f2f57829003601f168201915b5050505050915050611f68565b8080600101915050611e1b565b505b919050565b6000600280549050905090565b60018181548110611f8757fe5b90600052602060002090600302016000915090508060000160009054906101000a900473ffffffffffffffffffffffffffffffffffffffff16908060000160149054906101000a900460ff1690806001018054600181600116156101000203166002900480601f01602080910402602001604051908101604052809291908181526020018280546001816001161561010002031660029004801561206c5780601f106120415761010080835404028352916020019161206c565b820191906000526020600020905b81548152906001019060200180831161204f57829003601f168201915b5050505050908060020154905084565b6000600180549050905090565b60008090505b600180549050811015612140578173ffffffffffffffffffffffffffffffffffffffff16600182815481106120c057fe5b906000526020600020906003020160000160009054906101000a900473ffffffffffffffffffffffffffffffffffffffff1673ffffffffffffffffffffffffffffffffffffffff1614156121335760006001828154811061211d57fe5b9060005260206000209060030201600201819055505b808060010191505061208f565b5060008060009054906101000a900473ffffffffffffffffffffffffffffffffffffffff1690508073ffffffffffffffffffffffffffffffffffffffff166108fc349081150290604051600060405180830381858888f193505050501580156121ad573d6000803e3d6000fd5b505050565b60008060028054905014156121ca5760009050612296565b60008090505b600280549050811015612290578273ffffffffffffffffffffffffffffffffffffffff166002828154811061220157fe5b906000526020600020906002020160000160009054906101000a900473ffffffffffffffffffffffffffffffffffffffff1673ffffffffffffffffffffffffffffffffffffffff161415612283576002818154811061225c57fe5b906000526020600020906002020160000160149054906101000a900460ff16915050612296565b80806001019150506121d0565b50600090505b919050565b60008060018054905014156122b3576000905061237f565b60008090505b600180549050811015612379578273ffffffffffffffffffffffffffffffffffffffff16600182815481106122ea57fe5b906000526020600020906003020160000160009054906101000a900473ffffffffffffffffffffffffffffffffffffffff1673ffffffffffffffffffffffffffffffffffffffff16141561236c576001818154811061234557fe5b906000526020600020906003020160000160149054906101000a900460ff1691505061237f565b80806001019150506122b9565b50600090505b919050565b600080600090505b60018054905081101561243f578273ffffffffffffffffffffffffffffffffffffffff16600182815481106123bd57fe5b906000526020600020906003020160000160009054906101000a900473ffffffffffffffffffffffffffffffffffffffff1673ffffffffffffffffffffffffffffffffffffffff161415612432576001818154811061241857fe5b906000526020600020906003020160020154915050612441565b808060010191505061238c565b505b919050565b828054600181600116156101000203166002900490600052602060002090601f016020900481019282601f1061248757805160ff19168380011785556124b5565b828001600101855582156124b5579182015b828111156124b4578251825591602001919060010190612499565b5b5090506124c291906124c6565b5090565b6124e891905b808211156124e45760008160009055506001016124cc565b5090565b9056fea265627a7a72315820ff8d5f7b04ad384adc7bb8c650e608ce3709c07e98128f9304236f50ecf03b1a64736f6c63430005100032",
  "source": "pragma solidity >=0.4.21 <0.7.0;\r\n\r\ncontract AdminContract{\r\n    address public owner;\r\n\r\n    producer[] public producers;\r\n    User[] public retailers;\r\n    User[] public consumers;\r\n    User[] public recycleUnits;\r\n\r\n    modifier onlyOwner(){\r\n        require(msg.sender == owner);\r\n        _;\r\n    }\r\n\r\n    struct producer{\r\n        address addr;\r\n        bool ispresent;\r\n        string name;\r\n        uint penalize;\r\n    }\r\n\r\n    struct User{\r\n        address addr;\r\n        bool ispresent;\r\n        string name;\r\n    }\r\n\r\n    constructor() public{\r\n        owner = msg.sender;\r\n    }\r\n    function addProducer(address _pAddress,string memory _name) public returns(bool){\r\n        // if(!checkProducer(_pAddress)){\r\n            producers.push(producer(_pAddress, true, _name,0));\r\n            return true;\r\n        // }else{\r\n        //     return false;\r\n        // }\r\n    }\r\n\r\n    function addRetailer(address _rAddress,string memory _name) public returns(bool){\r\n        if(!checkRetailer(_rAddress)){\r\n            retailers.push(User(_rAddress, true, _name));\r\n            return true;\r\n        }else{\r\n            return false;\r\n        }\r\n    }\r\n\r\n    function addConsumer(address _cAddress,string memory _name) public returns(bool){\r\n        if(!checkConsumer(_cAddress)){\r\n            consumers.push(User(_cAddress, true, _name));\r\n            return true;\r\n        }else{\r\n            return false;\r\n        }\r\n    }\r\n\r\n    function addRecycleUnit(address _rAddress,string memory _name) public returns(bool){\r\n        if(!checkRecycleUnit(_rAddress)){\r\n            recycleUnits.push(User(_rAddress, true, _name));\r\n            return true;\r\n        }else{\r\n            return false;\r\n        }\r\n    }\r\n\r\n    //validate users\r\n    function checkProducer(address _address) public view returns(bool) {\r\n        if(producers.length == 0){\r\n            return false;\r\n        }else{\r\n            for (uint i=0; i<producers.length; i++){\r\n                if(producers[i].addr == _address){\r\n                    return producers[i].ispresent;\r\n                }\r\n            }\r\n            return false;\r\n        }\r\n    }\r\n\r\n    function checkRetailer(address _address) public view returns(bool) {\r\n        if(retailers.length == 0){\r\n            return false;\r\n        }else{\r\n            for (uint i=0; i<retailers.length; i++){\r\n                if(retailers[i].addr == _address){\r\n                    return retailers[i].ispresent;\r\n                }\r\n            }\r\n            return false;\r\n        }\r\n    }\r\n\r\n    function checkConsumer(address _address) public view returns(bool) {\r\n        if(consumers.length == 0){\r\n            return false;\r\n        }else{\r\n            for (uint i=0; i<consumers.length; i++){\r\n                if(consumers[i].addr == _address){\r\n                    return consumers[i].ispresent;\r\n                }\r\n            }\r\n            return false;\r\n        }\r\n    }\r\n\r\n    function checkRecycleUnit(address _address) public view returns(bool) {\r\n        if(recycleUnits.length == 0){\r\n            return false;\r\n        }else{\r\n            for (uint i=0; i<recycleUnits.length; i++){\r\n                if(recycleUnits[i].addr == _address){\r\n                    return recycleUnits[i].ispresent;\r\n                }\r\n            }\r\n            return false;\r\n        }\r\n    }\r\n\r\n    //returning length\r\n    function getProducerCount() public view returns(uint){\r\n        return producers.length;\r\n    }\r\n\r\n    function getRetailerCount() public view returns(uint){\r\n        return retailers.length;\r\n    }\r\n\r\n    function getConsumerCount() public view returns(uint){\r\n        return consumers.length;\r\n    }\r\n\r\n    function getRecyclingUintCount() public view returns(uint){\r\n        return recycleUnits.length;\r\n    }\r\n\r\n    //return names\r\n    function getProducerName(address _address) public view returns(string memory,uint){\r\n        for(uint i=0; i<producers.length; i++){\r\n            if(producers[i].addr == _address){\r\n                return (producers[i].name,producers[i].penalize);\r\n            }\r\n        }\r\n    }\r\n\r\n    function getRetailerName(address _address) public view returns(string memory){\r\n        for(uint i=0; i<retailers.length; i++){\r\n            if(retailers[i].addr == _address){\r\n                return retailers[i].name;\r\n            }\r\n        }\r\n    }\r\n\r\n    function getConsumerName(address _address) public view returns(string memory){\r\n        for(uint i=0; i<consumers.length; i++){\r\n            if(consumers[i].addr == _address){\r\n                return consumers[i].name;\r\n            }\r\n        }\r\n    }\r\n\r\n    function getRecycleUnitName(address _address) public view returns(string memory){\r\n        for(uint i=0; i<recycleUnits.length; i++){\r\n            if(recycleUnits[i].addr == _address){\r\n                return recycleUnits[i].name;\r\n            }\r\n        }\r\n    }\r\n\r\n    function addPenalizeAmount(uint _amount,address _producer) public {\r\n        for(uint i=0; i<producers.length; i++){\r\n            if(producers[i].addr == _producer){\r\n                producers[i].penalize=_amount;\r\n            }\r\n        }\r\n    }\r\n\r\n    function payPenalizeAmount(address _producer) public payable {\r\n        for(uint i=0; i<producers.length; i++){\r\n            if(producers[i].addr == _producer){\r\n                producers[i].penalize=0;\r\n            }\r\n        }\r\n        address payable _admin=address(uint160(owner));\r\n        _admin.transfer(msg.value);\r\n    }\r\n\r\n    function getPenalizeAmount(address _producer)public view returns(uint){\r\n        for(uint i=0; i<producers.length; i++){\r\n            if(producers[i].addr == _producer){\r\n                return producers[i].penalize;\r\n            }\r\n        }\r\n    }\r\n\r\n\r\n}\r\n",
  "sourcePath": "C:\\Users\\91885\\Desktop\\new\\eWasteManagement\\contracts\\AdminContract.sol",
  "compiler": {
    "name": "solc",
    "version": "0.5.16+commit.9c3226ce.Emscripten.clang"
  },
  "schemaVersion": "3.4.13",
  "updatedAt": "2023-05-11T03:46:19.487Z",
  "networkType": "ethereum",
  "devdoc": {
    "methods": {}
  },
  "userdoc": {
    "methods": {}
  }
}