{
  "contractName": "NodeContract",
  "abi": [
    {
      "inputs": [],
      "payable": false,
      "stateMutability": "nonpayable",
      "type": "constructor"
    },
    {
      "payable": true,
      "stateMutability": "payable",
      "type": "fallback"
    },
    {
      "constant": true,
      "inputs": [
        {
          "internalType": "uint256",
          "name": "",
          "type": "uint256"
        }
      ],
      "name": "ProductList",
      "outputs": [
        {
          "internalType": "address",
          "name": "producerAddress",
          "type": "address"
        },
        {
          "internalType": "address",
          "name": "retailerAddress",
          "type": "address"
        },
        {
          "internalType": "address",
          "name": "consumerAddress",
          "type": "address"
        },
        {
          "internalType": "string",
          "name": "name",
          "type": "string"
        },
        {
          "internalType": "string",
          "name": "typeOfProduct",
          "type": "string"
        },
        {
          "internalType": "bool",
          "name": "returnedToRetailer",
          "type": "bool"
        },
        {
          "internalType": "bool",
          "name": "returnedToProducer",
          "type": "bool"
        },
        {
          "internalType": "uint256",
          "name": "reusePercentage",
          "type": "uint256"
        },
        {
          "internalType": "uint256",
          "name": "price",
          "type": "uint256"
        },
        {
          "internalType": "uint256",
          "name": "percentConsumer",
          "type": "uint256"
        },
        {
          "internalType": "bool",
          "name": "markedByAdmin",
          "type": "bool"
        }
      ],
      "payable": false,
      "stateMutability": "view",
      "type": "function"
    },
    {
      "constant": true,
      "inputs": [
        {
          "internalType": "uint256",
          "name": "",
          "type": "uint256"
        }
      ],
      "name": "weights",
      "outputs": [
        {
          "internalType": "uint256",
          "name": "weightOfGlass",
          "type": "uint256"
        },
        {
          "internalType": "uint256",
          "name": "weightOfPlastic",
          "type": "uint256"
        },
        {
          "internalType": "uint256",
          "name": "weightOfNickel",
          "type": "uint256"
        },
        {
          "internalType": "uint256",
          "name": "weightOfAluminium",
          "type": "uint256"
        },
        {
          "internalType": "uint256",
          "name": "weightOfCopper",
          "type": "uint256"
        },
        {
          "internalType": "uint256",
          "name": "weightOfMagnesium",
          "type": "uint256"
        },
        {
          "internalType": "uint256",
          "name": "weightOfLead",
          "type": "uint256"
        }
      ],
      "payable": false,
      "stateMutability": "view",
      "type": "function"
    },
    {
      "constant": true,
      "inputs": [
        {
          "internalType": "string",
          "name": "a",
          "type": "string"
        },
        {
          "internalType": "string",
          "name": "b",
          "type": "string"
        }
      ],
      "name": "compareStrings",
      "outputs": [
        {
          "internalType": "bool",
          "name": "",
          "type": "bool"
        }
      ],
      "payable": false,
      "stateMutability": "pure",
      "type": "function"
    },
    {
      "constant": false,
      "inputs": [
        {
          "internalType": "string",
          "name": "_name",
          "type": "string"
        },
        {
          "internalType": "string",
          "name": "_type",
          "type": "string"
        },
        {
          "internalType": "uint256",
          "name": "_weightOfAluminium",
          "type": "uint256"
        },
        {
          "internalType": "uint256",
          "name": "_weightOfNickel",
          "type": "uint256"
        },
        {
          "internalType": "uint256",
          "name": "_weightOfGlass",
          "type": "uint256"
        },
        {
          "internalType": "uint256",
          "name": "_weightOfPlastic",
          "type": "uint256"
        },
        {
          "internalType": "uint256",
          "name": "_weightOfCopper",
          "type": "uint256"
        },
        {
          "internalType": "uint256",
          "name": "_weightOfMagnesium",
          "type": "uint256"
        },
        {
          "internalType": "uint256",
          "name": "_weightOfLead",
          "type": "uint256"
        },
        {
          "internalType": "uint256",
          "name": "_price",
          "type": "uint256"
        },
        {
          "internalType": "uint256",
          "name": "_quantity",
          "type": "uint256"
        }
      ],
      "name": "addProduct",
      "outputs": [],
      "payable": false,
      "stateMutability": "nonpayable",
      "type": "function"
    },
    {
      "constant": true,
      "inputs": [],
      "name": "getProductCount",
      "outputs": [
        {
          "internalType": "uint256",
          "name": "",
          "type": "uint256"
        }
      ],
      "payable": false,
      "stateMutability": "view",
      "type": "function"
    },
    {
      "constant": false,
      "inputs": [
        {
          "internalType": "uint256[]",
          "name": "_ids",
          "type": "uint256[]"
        }
      ],
      "name": "addReturnProducts",
      "outputs": [],
      "payable": false,
      "stateMutability": "nonpayable",
      "type": "function"
    },
    {
      "constant": false,
      "inputs": [
        {
          "internalType": "uint256",
          "name": "_id",
          "type": "uint256"
        },
        {
          "internalType": "address payable",
          "name": "_address",
          "type": "address"
        },
        {
          "internalType": "uint256",
          "name": "_percentConsumer",
          "type": "uint256"
        }
      ],
      "name": "addReturnProductToRetailer",
      "outputs": [],
      "payable": true,
      "stateMutability": "payable",
      "type": "function"
    },
    {
      "constant": true,
      "inputs": [
        {
          "internalType": "address",
          "name": "_producer",
          "type": "address"
        },
        {
          "internalType": "string",
          "name": "_name",
          "type": "string"
        },
        {
          "internalType": "string",
          "name": "_type",
          "type": "string"
        },
        {
          "internalType": "uint256",
          "name": "_quantity",
          "type": "uint256"
        }
      ],
      "name": "getCostForRetailer",
      "outputs": [
        {
          "internalType": "uint256",
          "name": "",
          "type": "uint256"
        }
      ],
      "payable": false,
      "stateMutability": "view",
      "type": "function"
    },
    {
      "constant": false,
      "inputs": [
        {
          "internalType": "address payable",
          "name": "_producer",
          "type": "address"
        },
        {
          "internalType": "string",
          "name": "_name",
          "type": "string"
        },
        {
          "internalType": "string",
          "name": "_type",
          "type": "string"
        },
        {
          "internalType": "uint256",
          "name": "_quantity",
          "type": "uint256"
        }
      ],
      "name": "soldToRetailer",
      "outputs": [],
      "payable": true,
      "stateMutability": "payable",
      "type": "function"
    },
    {
      "constant": true,
      "inputs": [
        {
          "internalType": "address",
          "name": "_retailer",
          "type": "address"
        },
        {
          "internalType": "string",
          "name": "_name",
          "type": "string"
        },
        {
          "internalType": "string",
          "name": "_type",
          "type": "string"
        },
        {
          "internalType": "uint256",
          "name": "_quantity",
          "type": "uint256"
        }
      ],
      "name": "getCostForConsumer",
      "outputs": [
        {
          "internalType": "uint256",
          "name": "",
          "type": "uint256"
        }
      ],
      "payable": false,
      "stateMutability": "view",
      "type": "function"
    },
    {
      "constant": false,
      "inputs": [
        {
          "internalType": "address payable",
          "name": "_retailer",
          "type": "address"
        },
        {
          "internalType": "string",
          "name": "_name",
          "type": "string"
        },
        {
          "internalType": "string",
          "name": "_type",
          "type": "string"
        },
        {
          "internalType": "uint256",
          "name": "_quantity",
          "type": "uint256"
        }
      ],
      "name": "soldToConsumer",
      "outputs": [],
      "payable": true,
      "stateMutability": "payable",
      "type": "function"
    },
    {
      "constant": true,
      "inputs": [
        {
          "internalType": "uint256",
          "name": "_id",
          "type": "uint256"
        },
        {
          "internalType": "uint256",
          "name": "_percentage",
          "type": "uint256"
        }
      ],
      "name": "getValue",
      "outputs": [
        {
          "internalType": "uint256",
          "name": "",
          "type": "uint256"
        }
      ],
      "payable": false,
      "stateMutability": "view",
      "type": "function"
    },
    {
      "constant": false,
      "inputs": [
        {
          "internalType": "uint256",
          "name": "_id",
          "type": "uint256"
        },
        {
          "internalType": "uint256",
          "name": "_percentage",
          "type": "uint256"
        }
      ],
      "name": "addPercentage",
      "outputs": [],
      "payable": true,
      "stateMutability": "payable",
      "type": "function"
    },
    {
      "constant": false,
      "inputs": [
        {
          "internalType": "uint256[]",
          "name": "_products",
          "type": "uint256[]"
        },
        {
          "internalType": "address payable",
          "name": "_producer",
          "type": "address"
        }
      ],
      "name": "sendIncentives",
      "outputs": [],
      "payable": true,
      "stateMutability": "payable",
      "type": "function"
    },
    {
      "constant": false,
      "inputs": [
        {
          "internalType": "uint256[]",
          "name": "_products",
          "type": "uint256[]"
        },
        {
          "internalType": "address",
          "name": "_producer",
          "type": "address"
        }
      ],
      "name": "penalizeProducer",
      "outputs": [],
      "payable": false,
      "stateMutability": "nonpayable",
      "type": "function"
    },
    {
      "constant": true,
      "inputs": [
        {
          "internalType": "address",
          "name": "_address",
          "type": "address"
        }
      ],
      "name": "fetchProductReferenceConsumer",
      "outputs": [
        {
          "internalType": "uint256",
          "name": "",
          "type": "uint256"
        }
      ],
      "payable": false,
      "stateMutability": "view",
      "type": "function"
    }
  ],
  "bytecode": "0x608060405234801561001057600080fd5b50336000806101000a81548173ffffffffffffffffffffffffffffffffffffffff021916908373ffffffffffffffffffffffffffffffffffffffff160217905550612800806100606000396000f3fe6080604052600436106100f35760003560e01c8063805dd9e91161008a578063bed34bba11610059578063bed34bba14610d0e578063d74a425a14610e85578063f1984d2014610edd578063f5bc22e114610f42576100f3565b8063805dd9e9146108315780638274963f14610a205780638fa801a414610af8578063b5f163ff14610c95576100f3565b80634a348da9116100c65780634a348da9146106b05780634b6c69c8146106db57806368e282a7146107135780636a19e6de146107d8576100f3565b80632f290a96146100f857806330ab59f8146102b257806346c789e41461042e578063474ba802146105cb575b600080fd5b34801561010457600080fd5b506102b0600480360361016081101561011c57600080fd5b810190808035906020019064010000000081111561013957600080fd5b82018360208201111561014b57600080fd5b8035906020019184600183028401116401000000008311171561016d57600080fd5b91908080601f016020809104026020016040519081016040528093929190818152602001838380828437600081840152601f19601f820116905080830192505050505050509192919290803590602001906401000000008111156101d057600080fd5b8201836020820111156101e257600080fd5b8035906020019184600183028401116401000000008311171561020457600080fd5b91908080601f016020809104026020016040519081016040528093929190818152602001838380828437600081840152601f19601f8201169050808301925050505050505091929192908035906020019092919080359060200190929190803590602001909291908035906020019092919080359060200190929190803590602001909291908035906020019092919080359060200190929190803590602001909291905050506110be565b005b61042c600480360360808110156102c857600080fd5b81019080803573ffffffffffffffffffffffffffffffffffffffff1690602001909291908035906020019064010000000081111561030557600080fd5b82018360208201111561031757600080fd5b8035906020019184600183028401116401000000008311171561033957600080fd5b91908080601f016020809104026020016040519081016040528093929190818152602001838380828437600081840152601f19601f8201169050808301925050505050505091929192908035906020019064010000000081111561039c57600080fd5b8201836020820111156103ae57600080fd5b803590602001918460018302840111640100000000831117156103d057600080fd5b91908080601f016020809104026020016040519081016040528093929190818152602001838380828437600081840152601f19601f820116905080830192505050505050509192919290803590602001909291905050506113eb565b005b34801561043a57600080fd5b506105b56004803603608081101561045157600080fd5b81019080803573ffffffffffffffffffffffffffffffffffffffff1690602001909291908035906020019064010000000081111561048e57600080fd5b8201836020820111156104a057600080fd5b803590602001918460018302840111640100000000831117156104c257600080fd5b91908080601f016020809104026020016040519081016040528093929190818152602001838380828437600081840152601f19601f8201169050808301925050505050505091929192908035906020019064010000000081111561052557600080fd5b82018360208201111561053757600080fd5b8035906020019184600183028401116401000000008311171561055957600080fd5b91908080601f016020809104026020016040519081016040528093929190818152602001838380828437600081840152601f19601f82011690508083019250505050505050919291929080359060200190929190505050611744565b6040518082815260200191505060405180910390f35b3480156105d757600080fd5b506106ae600480360360408110156105ee57600080fd5b810190808035906020019064010000000081111561060b57600080fd5b82018360208201111561061d57600080fd5b8035906020019184602083028401116401000000008311171561063f57600080fd5b919080806020026020016040519081016040528093929190818152602001838360200280828437600081840152601f19601f820116905080830192505050505050509192919290803573ffffffffffffffffffffffffffffffffffffffff169060200190929190505050611a29565b005b3480156106bc57600080fd5b506106c5611a94565b6040518082815260200191505060405180910390f35b610711600480360360408110156106f157600080fd5b810190808035906020019092919080359060200190929190505050611aa1565b005b34801561071f57600080fd5b506107d66004803603602081101561073657600080fd5b810190808035906020019064010000000081111561075357600080fd5b82018360208201111561076557600080fd5b8035906020019184602083028401116401000000008311171561078757600080fd5b919080806020026020016040519081016040528093929190818152602001838360200280828437600081840152601f19601f820116905080830192505050505050509192919290505050611b53565b005b3480156107e457600080fd5b5061081b600480360360408110156107fb57600080fd5b810190808035906020019092919080359060200190929190505050611bbd565b6040518082815260200191505060405180910390f35b34801561083d57600080fd5b5061086a6004803603602081101561085457600080fd5b8101908080359060200190929190505050611c2d565b604051808c73ffffffffffffffffffffffffffffffffffffffff1673ffffffffffffffffffffffffffffffffffffffff1681526020018b73ffffffffffffffffffffffffffffffffffffffff1673ffffffffffffffffffffffffffffffffffffffff1681526020018a73ffffffffffffffffffffffffffffffffffffffff1673ffffffffffffffffffffffffffffffffffffffff168152602001806020018060200189151515158152602001881515151581526020018781526020018681526020018581526020018415151515815260200183810383528b818151815260200191508051906020019080838360005b83811015610974578082015181840152602081019050610959565b50505050905090810190601f1680156109a15780820380516001836020036101000a031916815260200191505b5083810382528a818151815260200191508051906020019080838360005b838110156109da5780820151818401526020810190506109bf565b50505050905090810190601f168015610a075780820380516001836020036101000a031916815260200191505b509d505050505050505050505050505060405180910390f35b610af660048036036040811015610a3657600080fd5b8101908080359060200190640100000000811115610a5357600080fd5b820183602082011115610a6557600080fd5b80359060200191846020830284011164010000000083111715610a8757600080fd5b919080806020026020016040519081016040528093929190818152602001838360200280828437600081840152601f19601f820116905080830192505050505050509192919290803573ffffffffffffffffffffffffffffffffffffffff169060200190929190505050611e4b565b005b348015610b0457600080fd5b50610c7f60048036036080811015610b1b57600080fd5b81019080803573ffffffffffffffffffffffffffffffffffffffff16906020019092919080359060200190640100000000811115610b5857600080fd5b820183602082011115610b6a57600080fd5b80359060200191846001830284011164010000000083111715610b8c57600080fd5b91908080601f016020809104026020016040519081016040528093929190818152602001838380828437600081840152601f19601f82011690508083019250505050505050919291929080359060200190640100000000811115610bef57600080fd5b820183602082011115610c0157600080fd5b80359060200191846001830284011164010000000083111715610c2357600080fd5b91908080601f016020809104026020016040519081016040528093929190818152602001838380828437600081840152601f19601f82011690508083019250505050505050919291929080359060200190929190505050611efd565b6040518082815260200191505060405180910390f35b348015610ca157600080fd5b50610cce60048036036020811015610cb857600080fd5b81019080803590602001909291905050506121e2565b6040518088815260200187815260200186815260200185815260200184815260200183815260200182815260200197505050505050505060405180910390f35b348015610d1a57600080fd5b50610e6b60048036036040811015610d3157600080fd5b8101908080359060200190640100000000811115610d4e57600080fd5b820183602082011115610d6057600080fd5b80359060200191846001830284011164010000000083111715610d8257600080fd5b91908080601f016020809104026020016040519081016040528093929190818152602001838380828437600081840152601f19601f82011690508083019250505050505050919291929080359060200190640100000000811115610de557600080fd5b820183602082011115610df757600080fd5b80359060200191846001830284011164010000000083111715610e1957600080fd5b91908080601f016020809104026020016040519081016040528093929190818152602001838380828437600081840152601f19601f820116905080830192505050505050509192919290505050612231565b604051808215151515815260200191505060405180910390f35b610edb60048036036060811015610e9b57600080fd5b8101908080359060200190929190803573ffffffffffffffffffffffffffffffffffffffff16906020019092919080359060200190929190505050612320565b005b348015610ee957600080fd5b50610f2c60048036036020811015610f0057600080fd5b81019080803573ffffffffffffffffffffffffffffffffffffffff1690602001909291905050506123c6565b6040518082815260200191505060405180910390f35b6110bc60048036036080811015610f5857600080fd5b81019080803573ffffffffffffffffffffffffffffffffffffffff16906020019092919080359060200190640100000000811115610f9557600080fd5b820183602082011115610fa757600080fd5b80359060200191846001830284011164010000000083111715610fc957600080fd5b91908080601f016020809104026020016040519081016040528093929190818152602001838380828437600081840152601f19601f8201169050808301925050505050505091929192908035906020019064010000000081111561102c57600080fd5b82018360208201111561103e57600080fd5b8035906020019184600183028401116401000000008311171561106057600080fd5b91908080601f016020809104026020016040519081016040528093929190818152602001838380828437600081840152601f19601f820116905080830192505050505050509192919290803590602001909291905050506123cd565b005b60008090505b818110156113dd5760026040518061016001604052803373ffffffffffffffffffffffffffffffffffffffff168152602001600073ffffffffffffffffffffffffffffffffffffffff168152602001600073ffffffffffffffffffffffffffffffffffffffff1681526020018e81526020018d81526020016000151581526020016000151581526020016000815260200185815260200160008152602001600015158152509080600181540180825580915050906001820390600052602060002090600a02016000909192909190915060008201518160000160006101000a81548173ffffffffffffffffffffffffffffffffffffffff021916908373ffffffffffffffffffffffffffffffffffffffff16021790555060208201518160010160006101000a81548173ffffffffffffffffffffffffffffffffffffffff021916908373ffffffffffffffffffffffffffffffffffffffff16021790555060408201518160020160006101000a81548173ffffffffffffffffffffffffffffffffffffffff021916908373ffffffffffffffffffffffffffffffffffffffff1602179055506060820151816003019080519060200190611285929190612726565b5060808201518160040190805190602001906112a2929190612726565b5060a08201518160050160006101000a81548160ff02191690831515021790555060c08201518160050160016101000a81548160ff02191690831515021790555060e08201518160060155610100820151816007015561012082015181600801556101408201518160090160006101000a81548160ff02191690831515021790555050505060036040518060e001604052808a81526020018981526020018b81526020018c81526020018881526020018781526020018681525090806001815401808255809150509060018203906000526020600020906007020160009091929091909150600082015181600001556020820151816001015560408201518160020155606082015181600301556080820151816004015560a0820151816005015560c0820151816006015550505080806001019150506110c4565b505050505050505050505050565b60008090505b6002805490508110156116f6578473ffffffffffffffffffffffffffffffffffffffff166002828154811061142257fe5b90600052602060002090600a020160010160009054906101000a900473ffffffffffffffffffffffffffffffffffffffff1673ffffffffffffffffffffffffffffffffffffffff1614801561153357506115326002828154811061148257fe5b90600052602060002090600a02016004018054600181600116156101000203166002900480601f0160208091040260200160405190810160405280929190818152602001828054600181600116156101000203166002900480156115275780601f106114fc57610100808354040283529160200191611527565b820191906000526020600020905b81548152906001019060200180831161150a57829003601f168201915b505050505084612231565b5b80156115fb57506115fa6002828154811061154a57fe5b90600052602060002090600a02016003018054600181600116156101000203166002900480601f0160208091040260200160405190810160405280929190818152602001828054600181600116156101000203166002900480156115ef5780601f106115c4576101008083540402835291602001916115ef565b820191906000526020600020905b8154815290600101906020018083116115d257829003601f168201915b505050505085612231565b5b80156116075750600082115b801561167d5750600073ffffffffffffffffffffffffffffffffffffffff166002828154811061163357fe5b90600052602060002090600a020160020160009054906101000a900473ffffffffffffffffffffffffffffffffffffffff1673ffffffffffffffffffffffffffffffffffffffff16145b156116e957336002828154811061169057fe5b90600052602060002090600a020160020160006101000a81548173ffffffffffffffffffffffffffffffffffffffff021916908373ffffffffffffffffffffffffffffffffffffffff1602179055508180600190039250505b80806001019150506113f1565b508373ffffffffffffffffffffffffffffffffffffffff166108fc349081150290604051600060405180830381858888f1935050505015801561173d573d6000803e3d6000fd5b5050505050565b6000806000905060008090505b600280549050811015611a1c578673ffffffffffffffffffffffffffffffffffffffff166002828154811061178257fe5b90600052602060002090600a020160010160009054906101000a900473ffffffffffffffffffffffffffffffffffffffff1673ffffffffffffffffffffffffffffffffffffffff161480156118935750611892600282815481106117e257fe5b90600052602060002090600a02016004018054600181600116156101000203166002900480601f0160208091040260200160405190810160405280929190818152602001828054600181600116156101000203166002900480156118875780601f1061185c57610100808354040283529160200191611887565b820191906000526020600020905b81548152906001019060200180831161186a57829003601f168201915b505050505086612231565b5b801561195b575061195a600282815481106118aa57fe5b90600052602060002090600a02016003018054600181600116156101000203166002900480601f01602080910402602001604051908101604052809291908181526020018280546001816001161561010002031660029004801561194f5780601f106119245761010080835404028352916020019161194f565b820191906000526020600020905b81548152906001019060200180831161193257829003601f168201915b505050505087612231565b5b80156119675750600084115b80156119dd5750600073ffffffffffffffffffffffffffffffffffffffff166002828154811061199357fe5b90600052602060002090600a020160020160009054906101000a900473ffffffffffffffffffffffffffffffffffffffff1673ffffffffffffffffffffffffffffffffffffffff16145b15611a0f57838060019003945050600281815481106119f857fe5b90600052602060002090600a020160070154820191505b8080600101915050611751565b5080915050949350505050565b60008090505b8251811015611a8f5760016002848381518110611a4857fe5b602002602001015181548110611a5a57fe5b90600052602060002090600a020160090160006101000a81548160ff0219169083151502179055508080600101915050611a2f565b505050565b6000600280549050905090565b8060028381548110611aaf57fe5b90600052602060002090600a020160060181905550600060028381548110611ad357fe5b90600052602060002090600a020160010160009054906101000a900473ffffffffffffffffffffffffffffffffffffffff1690508073ffffffffffffffffffffffffffffffffffffffff166108fc349081150290604051600060405180830381858888f19350505050158015611b4d573d6000803e3d6000fd5b50505050565b60008090505b8151811015611bb95760016002838381518110611b7257fe5b602002602001015181548110611b8457fe5b90600052602060002090600a020160050160016101000a81548160ff0219169083151502179055508080600101915050611b59565b5050565b60008060028481548110611bcd57fe5b90600052602060002090600a0201600801549050600060028581548110611bf057fe5b90600052602060002090600a0201600701549050600066038d7ea4c6800082860202662386f26fc100008385020201905080935050505092915050565b60028181548110611c3a57fe5b90600052602060002090600a02016000915090508060000160009054906101000a900473ffffffffffffffffffffffffffffffffffffffff16908060010160009054906101000a900473ffffffffffffffffffffffffffffffffffffffff16908060020160009054906101000a900473ffffffffffffffffffffffffffffffffffffffff1690806003018054600181600116156101000203166002900480601f016020809104026020016040519081016040528092919081815260200182805460018160011615610100020316600290048015611d585780601f10611d2d57610100808354040283529160200191611d58565b820191906000526020600020905b815481529060010190602001808311611d3b57829003601f168201915b505050505090806004018054600181600116156101000203166002900480601f016020809104026020016040519081016040528092919081815260200182805460018160011615610100020316600290048015611df65780601f10611dcb57610100808354040283529160200191611df6565b820191906000526020600020905b815481529060010190602001808311611dd957829003601f168201915b5050505050908060050160009054906101000a900460ff16908060050160019054906101000a900460ff16908060060154908060070154908060080154908060090160009054906101000a900460ff1690508b565b60008090505b8251811015611eb15760016002848381518110611e6a57fe5b602002602001015181548110611e7c57fe5b90600052602060002090600a020160090160006101000a81548160ff0219169083151502179055508080600101915050611e51565b508073ffffffffffffffffffffffffffffffffffffffff166108fc349081150290604051600060405180830381858888f19350505050158015611ef8573d6000803e3d6000fd5b505050565b6000806000905060008090505b6002805490508110156121d5578673ffffffffffffffffffffffffffffffffffffffff1660028281548110611f3b57fe5b90600052602060002090600a020160000160009054906101000a900473ffffffffffffffffffffffffffffffffffffffff1673ffffffffffffffffffffffffffffffffffffffff1614801561204c575061204b60028281548110611f9b57fe5b90600052602060002090600a02016004018054600181600116156101000203166002900480601f0160208091040260200160405190810160405280929190818152602001828054600181600116156101000203166002900480156120405780601f1061201557610100808354040283529160200191612040565b820191906000526020600020905b81548152906001019060200180831161202357829003601f168201915b505050505086612231565b5b801561211457506121136002828154811061206357fe5b90600052602060002090600a02016003018054600181600116156101000203166002900480601f0160208091040260200160405190810160405280929190818152602001828054600181600116156101000203166002900480156121085780601f106120dd57610100808354040283529160200191612108565b820191906000526020600020905b8154815290600101906020018083116120eb57829003601f168201915b505050505087612231565b5b80156121205750600084115b80156121965750600073ffffffffffffffffffffffffffffffffffffffff166002828154811061214c57fe5b90600052602060002090600a020160010160009054906101000a900473ffffffffffffffffffffffffffffffffffffffff1673ffffffffffffffffffffffffffffffffffffffff16145b156121c857838060019003945050600281815481106121b157fe5b90600052602060002090600a020160070154820191505b8080600101915050611f0a565b5080915050949350505050565b600381815481106121ef57fe5b90600052602060002090600702016000915090508060000154908060010154908060020154908060030154908060040154908060050154908060060154905087565b6000816040516020018082805190602001908083835b6020831061226a5780518252602082019150602081019050602083039250612247565b6001836020036101000a03801982511681845116808217855250505050505090500191505060405160208183030381529060405280519060200120836040516020018082805190602001908083835b602083106122dc57805182526020820191506020810190506020830392506122b9565b6001836020036101000a0380198251168184511680821785525050505050509050019150506040516020818303038152906040528051906020012014905092915050565b60016002848154811061232f57fe5b90600052602060002090600a020160050160006101000a81548160ff021916908315150217905550806002848154811061236557fe5b90600052602060002090600a0201600801819055508173ffffffffffffffffffffffffffffffffffffffff166108fc349081150290604051600060405180830381858888f193505050501580156123c0573d6000803e3d6000fd5b50505050565b6000919050565b60008090505b6002805490508110156126d8578473ffffffffffffffffffffffffffffffffffffffff166002828154811061240457fe5b90600052602060002090600a020160000160009054906101000a900473ffffffffffffffffffffffffffffffffffffffff1673ffffffffffffffffffffffffffffffffffffffff1614801561251557506125146002828154811061246457fe5b90600052602060002090600a02016004018054600181600116156101000203166002900480601f0160208091040260200160405190810160405280929190818152602001828054600181600116156101000203166002900480156125095780601f106124de57610100808354040283529160200191612509565b820191906000526020600020905b8154815290600101906020018083116124ec57829003601f168201915b505050505084612231565b5b80156125dd57506125dc6002828154811061252c57fe5b90600052602060002090600a02016003018054600181600116156101000203166002900480601f0160208091040260200160405190810160405280929190818152602001828054600181600116156101000203166002900480156125d15780601f106125a6576101008083540402835291602001916125d1565b820191906000526020600020905b8154815290600101906020018083116125b457829003601f168201915b505050505085612231565b5b80156125e95750600082115b801561265f5750600073ffffffffffffffffffffffffffffffffffffffff166002828154811061261557fe5b90600052602060002090600a020160010160009054906101000a900473ffffffffffffffffffffffffffffffffffffffff1673ffffffffffffffffffffffffffffffffffffffff16145b156126cb57336002828154811061267257fe5b90600052602060002090600a020160010160006101000a81548173ffffffffffffffffffffffffffffffffffffffff021916908373ffffffffffffffffffffffffffffffffffffffff1602179055508180600190039250505b80806001019150506123d3565b508373ffffffffffffffffffffffffffffffffffffffff166108fc349081150290604051600060405180830381858888f1935050505015801561271f573d6000803e3d6000fd5b5050505050565b828054600181600116156101000203166002900490600052602060002090601f016020900481019282601f1061276757805160ff1916838001178555612795565b82800160010185558215612795579182015b82811115612794578251825591602001919060010190612779565b5b5090506127a291906127a6565b5090565b6127c891905b808211156127c45760008160009055506001016127ac565b5090565b9056fea265627a7a723158202e4f041a39776e6492b40aa1c1819bd52c753c9857b05e0b3f7bfbda83ac12fd64736f6c63430005100032",
  "source": "pragma solidity >=0.4.21 <0.7.0;\r\n\r\ncontract NodeContract {\r\n\r\n    address owner;\r\n    uint currentPayableAmount;\r\n\r\n\tmodifier onlyOwner(){\r\n         require(msg.sender == owner);\r\n         _;\r\n    }\r\n\r\n     struct weightStruct{\r\n        uint weightOfGlass;         //0\r\n        uint weightOfPlastic;       //1\r\n        uint weightOfNickel;        //2\r\n        uint weightOfAluminium;     //3\r\n        uint weightOfCopper;        //4\r\n        uint weightOfMagnesium;     //5\r\n        uint weightOfLead;          //6\r\n    }\r\n\r\n    struct Product {\r\n        address producerAddress;    //0\r\n        address retailerAddress;    //1\r\n        address consumerAddress;    //2\r\n        string name;                //3\r\n        string typeOfProduct;       //4\r\n        bool returnedToRetailer;    //5\r\n        bool returnedToProducer;    //6\r\n        uint reusePercentage;       //7\r\n        uint price;                 //8\r\n        uint percentConsumer;       //9\r\n        bool markedByAdmin;         //10\r\n    }\r\n\r\n    Product[] public ProductList;\r\n    weightStruct[] public weights;\r\n\r\n\tconstructor() public {\r\n        owner=msg.sender;\r\n\t}\r\n\r\n\tfunction () external payable{\r\n\t    revert();\r\n\t}\r\n\r\n\tfunction compareStrings(string memory a, string memory b) public pure returns (bool) {\r\n        return (keccak256(abi.encodePacked((a))) == keccak256(abi.encodePacked((b))));\r\n    }\r\n\r\n\tfunction addProduct(string memory _name,string memory _type, uint _weightOfAluminium, uint _weightOfNickel, uint _weightOfGlass, uint _weightOfPlastic, uint _weightOfCopper, uint _weightOfMagnesium, uint _weightOfLead,uint _price, uint _quantity) public{\r\n        for(uint i=0; i<_quantity;i++){\r\n            ProductList.push(Product(msg.sender, address(0), address(0), _name,_type, false, false, 0, _price, 0,false));\r\n            weights.push(weightStruct(_weightOfGlass,_weightOfPlastic, _weightOfNickel,_weightOfAluminium,_weightOfCopper, _weightOfMagnesium,_weightOfLead));\r\n        }\r\n\t}\r\n\r\n\tfunction getProductCount() public view returns(uint){\r\n\t    return ProductList.length;\r\n\t}\r\n\r\n\tfunction addReturnProducts(uint[] memory _ids) public{\r\n        for(uint i=0; i<_ids.length; i++){\r\n            ProductList[_ids[i]].returnedToProducer = true;\r\n        }\r\n\t}\r\n\r\n\tfunction addReturnProductToRetailer(uint _id, address payable _address, uint _percentConsumer) public payable{\r\n\t    ProductList[_id].returnedToRetailer=true;\r\n        ProductList[_id].percentConsumer = _percentConsumer;\r\n        _address.transfer(msg.value);\r\n\t}\r\n\r\n    function getCostForRetailer(address _producer,string memory _name,string memory _type,uint _quantity) public view returns (uint){\r\n        uint _sum=0;\r\n        for(uint i=0;i<ProductList.length;i++){\r\n            if(ProductList[i].producerAddress==_producer && compareStrings(ProductList[i].typeOfProduct,_type) && compareStrings(ProductList[i].name,_name) && _quantity>0 && ProductList[i].retailerAddress==address(0)){\r\n                _quantity--;\r\n                _sum=_sum+ProductList[i].price;\r\n            }\r\n        }\r\n        return _sum;\r\n    }\r\n\r\n\tfunction soldToRetailer(address payable _producer,string memory _name,string memory _type,uint _quantity) public payable{\r\n        for(uint i=0;i<ProductList.length;i++){\r\n            if(ProductList[i].producerAddress==_producer && compareStrings(ProductList[i].typeOfProduct,_type) && compareStrings(ProductList[i].name,_name) && _quantity>0 && ProductList[i].retailerAddress==address(0)){\r\n                ProductList[i].retailerAddress=msg.sender;\r\n                _quantity--;\r\n            }\r\n        }\r\n        _producer.transfer(msg.value);\r\n\t}\r\n\r\n    function getCostForConsumer(address _retailer,string memory _name,string memory _type,uint _quantity) public view returns (uint){\r\n        uint _sum=0;\r\n        for(uint i=0;i<ProductList.length;i++){\r\n            if(ProductList[i].retailerAddress==_retailer && compareStrings(ProductList[i].typeOfProduct,_type) && compareStrings(ProductList[i].name,_name) && _quantity>0 && ProductList[i].consumerAddress==address(0)){\r\n                _quantity--;\r\n                _sum=_sum+ProductList[i].price;\r\n            }\r\n        }\r\n        return _sum;\r\n    }\r\n\r\n\tfunction soldToConsumer(address payable _retailer,string memory _name,string memory _type,uint _quantity) public payable{\r\n        for(uint i=0;i<ProductList.length;i++){\r\n            if(ProductList[i].retailerAddress==_retailer && compareStrings(ProductList[i].typeOfProduct,_type) && compareStrings(ProductList[i].name,_name) && _quantity>0 && ProductList[i].consumerAddress==address(0)){\r\n                ProductList[i].consumerAddress=msg.sender;\r\n                _quantity--;\r\n            }\r\n        }\r\n        _retailer.transfer(msg.value);\r\n\t}\r\n\r\n     function getValue(uint _id,uint _percentage) public view returns(uint){\r\n        uint _percentConsumer = ProductList[_id].percentConsumer;\r\n        uint _price = ProductList[_id].price;\r\n        uint _amount = _percentConsumer*_price*10**16 + _percentage*_price*10**15;\r\n        return _amount;\r\n    }\r\n\r\n    function addPercentage(uint _id,uint _percentage) public payable{\r\n        ProductList[_id].reusePercentage=_percentage;\r\n        address payable _retailer = address(uint160(ProductList[_id].retailerAddress));\r\n        _retailer.transfer(msg.value);\r\n    }\r\n\r\n    function sendIncentives (uint[] memory _products,address payable _producer) public payable {\r\n        //marking products marked by admin\r\n        for(uint i=0;i<_products.length;i++){\r\n            ProductList[_products[i]].markedByAdmin=true;\r\n        }\r\n        _producer.transfer(msg.value);\r\n    }\r\n\r\n    function penalizeProducer (uint[] memory _products,address _producer) public {\r\n         //marking products marked by admin\r\n        for(uint i=0;i<_products.length;i++){\r\n            ProductList[_products[i]].markedByAdmin=true;\r\n        }\r\n\r\n    }\r\n\r\n    //Consumer Methods\r\n    function fetchProductReferenceConsumer(address _address) public view returns(uint){\r\n\r\n    }\r\n\r\n}\r\n",
  "sourcePath": "C:\\Users\\91885\\Desktop\\new\\eWasteManagement\\contracts\\NodeContract.sol",
  "compiler": {
    "name": "solc",
    "version": "0.5.16+commit.9c3226ce.Emscripten.clang"
  },
  "schemaVersion": "3.4.13",
  "updatedAt": "2023-05-10T19:21:30.961Z",
  "networkType": "ethereum",
  "devdoc": {
    "methods": {}
  },
  "userdoc": {
    "methods": {}
  }
}